{
  "_format": "hh-sol-artifact-1",
  "contractName": "ThingID",
  "sourceName": "contracts/ThingID.sol",
  "abi": [
    {
      "anonymous": false,
      "inputs": [
        {
          "indexed": true,
          "internalType": "bytes32",
          "name": "deviceId",
          "type": "bytes32"
        },
        {
          "indexed": true,
          "internalType": "address",
          "name": "owner",
          "type": "address"
        },
        {
          "indexed": true,
          "internalType": "address",
          "name": "viewer",
          "type": "address"
        },
        {
          "indexed": false,
          "internalType": "uint256",
          "name": "expiresAt",
          "type": "uint256"
        },
        {
          "indexed": false,
          "internalType": "uint256",
          "name": "timestamp",
          "type": "uint256"
        }
      ],
      "name": "AccessGranted",
      "type": "event"
    },
    {
      "anonymous": false,
      "inputs": [
        {
          "indexed": true,
          "internalType": "bytes32",
          "name": "deviceId",
          "type": "bytes32"
        },
        {
          "indexed": true,
          "internalType": "address",
          "name": "viewer",
          "type": "address"
        },
        {
          "indexed": false,
          "internalType": "uint256",
          "name": "timestamp",
          "type": "uint256"
        }
      ],
      "name": "AccessRevoked",
      "type": "event"
    },
    {
      "anonymous": false,
      "inputs": [
        {
          "indexed": true,
          "internalType": "bytes32",
          "name": "deviceId",
          "type": "bytes32"
        },
        {
          "indexed": false,
          "internalType": "string",
          "name": "did",
          "type": "string"
        },
        {
          "indexed": true,
          "internalType": "address",
          "name": "owner",
          "type": "address"
        },
        {
          "indexed": false,
          "internalType": "string",
          "name": "name",
          "type": "string"
        },
        {
          "indexed": false,
          "internalType": "string",
          "name": "deviceType",
          "type": "string"
        },
        {
          "indexed": false,
          "internalType": "uint256",
          "name": "timestamp",
          "type": "uint256"
        }
      ],
      "name": "DeviceRegistered",
      "type": "event"
    },
    {
      "anonymous": false,
      "inputs": [
        {
          "indexed": true,
          "internalType": "bytes32",
          "name": "deviceId",
          "type": "bytes32"
        },
        {
          "indexed": false,
          "internalType": "bool",
          "name": "isActive",
          "type": "bool"
        },
        {
          "indexed": false,
          "internalType": "uint256",
          "name": "timestamp",
          "type": "uint256"
        }
      ],
      "name": "DeviceStatusChanged",
      "type": "event"
    },
    {
      "anonymous": false,
      "inputs": [
        {
          "indexed": true,
          "internalType": "bytes32",
          "name": "deviceId",
          "type": "bytes32"
        },
        {
          "indexed": false,
          "internalType": "string",
          "name": "name",
          "type": "string"
        },
        {
          "indexed": false,
          "internalType": "string",
          "name": "location",
          "type": "string"
        },
        {
          "indexed": false,
          "internalType": "uint256",
          "name": "timestamp",
          "type": "uint256"
        }
      ],
      "name": "DeviceUpdated",
      "type": "event"
    },
    {
      "inputs": [],
      "name": "NETWORK",
      "outputs": [
        {
          "internalType": "string",
          "name": "",
          "type": "string"
        }
      ],
      "stateMutability": "view",
      "type": "function"
    },
    {
      "inputs": [],
      "name": "VERSION",
      "outputs": [
        {
          "internalType": "string",
          "name": "",
          "type": "string"
        }
      ],
      "stateMutability": "view",
      "type": "function"
    },
    {
      "inputs": [
        {
          "internalType": "uint256",
          "name": "",
          "type": "uint256"
        }
      ],
      "name": "allDeviceIds",
      "outputs": [
        {
          "internalType": "bytes32",
          "name": "",
          "type": "bytes32"
        }
      ],
      "stateMutability": "view",
      "type": "function"
    },
    {
      "inputs": [
        {
          "internalType": "bytes32",
          "name": "",
          "type": "bytes32"
        },
        {
          "internalType": "uint256",
          "name": "",
          "type": "uint256"
        }
      ],
      "name": "deviceAccessPasses",
      "outputs": [
        {
          "internalType": "address",
          "name": "device_owner",
          "type": "address"
        },
        {
          "internalType": "address",
          "name": "viewer",
          "type": "address"
        },
        {
          "internalType": "uint256",
          "name": "grantedAt",
          "type": "uint256"
        },
        {
          "internalType": "uint256",
          "name": "expiresAt",
          "type": "uint256"
        },
        {
          "internalType": "bool",
          "name": "isActive",
          "type": "bool"
        }
      ],
      "stateMutability": "view",
      "type": "function"
    },
    {
      "inputs": [
        {
          "internalType": "bytes32",
          "name": "",
          "type": "bytes32"
        }
      ],
      "name": "devices",
      "outputs": [
        {
          "internalType": "string",
          "name": "did",
          "type": "string"
        },
        {
          "internalType": "string",
          "name": "name",
          "type": "string"
        },
        {
          "internalType": "string",
          "name": "deviceType",
          "type": "string"
        },
        {
          "internalType": "string",
          "name": "manufacturer",
          "type": "string"
        },
        {
          "internalType": "string",
          "name": "model",
          "type": "string"
        },
        {
          "internalType": "string",
          "name": "serialNumber",
          "type": "string"
        },
        {
          "internalType": "string",
          "name": "location",
          "type": "string"
        },
        {
          "internalType": "string",
          "name": "publicKey",
          "type": "string"
        },
        {
          "internalType": "address",
          "name": "owner",
          "type": "address"
        },
        {
          "internalType": "uint256",
          "name": "registeredAt",
          "type": "uint256"
        },
        {
          "internalType": "bool",
          "name": "isActive",
          "type": "bool"
        }
      ],
      "stateMutability": "view",
      "type": "function"
    },
    {
      "inputs": [
        {
          "internalType": "bytes32",
          "name": "deviceId",
          "type": "bytes32"
        },
        {
          "internalType": "address",
          "name": "viewer",
          "type": "address"
        }
      ],
      "name": "getAccessExpiration",
      "outputs": [
        {
          "internalType": "uint256",
          "name": "",
          "type": "uint256"
        }
      ],
      "stateMutability": "view",
      "type": "function"
    },
    {
      "inputs": [
        {
          "internalType": "bytes32",
          "name": "deviceId",
          "type": "bytes32"
        }
      ],
      "name": "getDevice",
      "outputs": [
        {
          "components": [
            {
              "internalType": "string",
              "name": "did",
              "type": "string"
            },
            {
              "internalType": "string",
              "name": "name",
              "type": "string"
            },
            {
              "internalType": "string",
              "name": "deviceType",
              "type": "string"
            },
            {
              "internalType": "string",
              "name": "manufacturer",
              "type": "string"
            },
            {
              "internalType": "string",
              "name": "model",
              "type": "string"
            },
            {
              "internalType": "string",
              "name": "serialNumber",
              "type": "string"
            },
            {
              "internalType": "string",
              "name": "location",
              "type": "string"
            },
            {
              "internalType": "string",
              "name": "publicKey",
              "type": "string"
            },
            {
              "internalType": "address",
              "name": "owner",
              "type": "address"
            },
            {
              "internalType": "uint256",
              "name": "registeredAt",
              "type": "uint256"
            },
            {
              "internalType": "bool",
              "name": "isActive",
              "type": "bool"
            }
          ],
          "internalType": "struct ThingID.Device",
          "name": "",
          "type": "tuple"
        }
      ],
      "stateMutability": "view",
      "type": "function"
    },
    {
      "inputs": [
        {
          "internalType": "bytes32",
          "name": "deviceId",
          "type": "bytes32"
        }
      ],
      "name": "getDeviceAccessPasses",
      "outputs": [
        {
          "components": [
            {
              "internalType": "address",
              "name": "device_owner",
              "type": "address"
            },
            {
              "internalType": "address",
              "name": "viewer",
              "type": "address"
            },
            {
              "internalType": "uint256",
              "name": "grantedAt",
              "type": "uint256"
            },
            {
              "internalType": "uint256",
              "name": "expiresAt",
              "type": "uint256"
            },
            {
              "internalType": "bool",
              "name": "isActive",
              "type": "bool"
            }
          ],
          "internalType": "struct ThingID.AccessPass[]",
          "name": "",
          "type": "tuple[]"
        }
      ],
      "stateMutability": "view",
      "type": "function"
    },
    {
      "inputs": [
        {
          "internalType": "uint256",
          "name": "index",
          "type": "uint256"
        }
      ],
      "name": "getDeviceByIndex",
      "outputs": [
        {
          "internalType": "bytes32",
          "name": "",
          "type": "bytes32"
        }
      ],
      "stateMutability": "view",
      "type": "function"
    },
    {
      "inputs": [
        {
          "internalType": "address",
          "name": "owner",
          "type": "address"
        }
      ],
      "name": "getOwnerDevices",
      "outputs": [
        {
          "internalType": "bytes32[]",
          "name": "",
          "type": "bytes32[]"
        }
      ],
      "stateMutability": "view",
      "type": "function"
    },
    {
      "inputs": [],
      "name": "getTotalDevices",
      "outputs": [
        {
          "internalType": "uint256",
          "name": "",
          "type": "uint256"
        }
      ],
      "stateMutability": "view",
      "type": "function"
    },
    {
      "inputs": [
        {
          "internalType": "bytes32",
          "name": "deviceId",
          "type": "bytes32"
        },
        {
          "internalType": "address",
          "name": "viewer",
          "type": "address"
        },
        {
          "internalType": "uint256",
          "name": "duration",
          "type": "uint256"
        }
      ],
      "name": "grantAccess",
      "outputs": [],
      "stateMutability": "nonpayable",
      "type": "function"
    },
    {
      "inputs": [
        {
          "internalType": "bytes32",
          "name": "deviceId",
          "type": "bytes32"
        },
        {
          "internalType": "address",
          "name": "viewer",
          "type": "address"
        }
      ],
      "name": "hasAccess",
      "outputs": [
        {
          "internalType": "bool",
          "name": "",
          "type": "bool"
        }
      ],
      "stateMutability": "view",
      "type": "function"
    },
    {
      "inputs": [
        {
          "internalType": "address",
          "name": "",
          "type": "address"
        },
        {
          "internalType": "uint256",
          "name": "",
          "type": "uint256"
        }
      ],
      "name": "ownerDevices",
      "outputs": [
        {
          "internalType": "bytes32",
          "name": "",
          "type": "bytes32"
        }
      ],
      "stateMutability": "view",
      "type": "function"
    },
    {
      "inputs": [
        {
          "internalType": "string",
          "name": "_did",
          "type": "string"
        },
        {
          "internalType": "string",
          "name": "_name",
          "type": "string"
        },
        {
          "internalType": "string",
          "name": "_deviceType",
          "type": "string"
        },
        {
          "internalType": "string",
          "name": "_manufacturer",
          "type": "string"
        },
        {
          "internalType": "string",
          "name": "_model",
          "type": "string"
        },
        {
          "internalType": "string",
          "name": "_serialNumber",
          "type": "string"
        },
        {
          "internalType": "string",
          "name": "_location",
          "type": "string"
        },
        {
          "internalType": "string",
          "name": "_publicKey",
          "type": "string"
        }
      ],
      "name": "registerDevice",
      "outputs": [
        {
          "internalType": "bytes32",
          "name": "",
          "type": "bytes32"
        }
      ],
      "stateMutability": "nonpayable",
      "type": "function"
    },
    {
      "inputs": [
        {
          "internalType": "bytes32",
          "name": "deviceId",
          "type": "bytes32"
        },
        {
          "internalType": "address",
          "name": "viewer",
          "type": "address"
        }
      ],
      "name": "revokeAccess",
      "outputs": [],
      "stateMutability": "nonpayable",
      "type": "function"
    },
    {
      "inputs": [
        {
          "internalType": "bytes32",
          "name": "deviceId",
          "type": "bytes32"
        }
      ],
      "name": "toggleDeviceStatus",
      "outputs": [],
      "stateMutability": "nonpayable",
      "type": "function"
    },
    {
      "inputs": [
        {
          "internalType": "bytes32",
          "name": "deviceId",
          "type": "bytes32"
        },
        {
          "internalType": "string",
          "name": "_name",
          "type": "string"
        },
        {
          "internalType": "string",
          "name": "_location",
          "type": "string"
        }
      ],
      "name": "updateDevice",
      "outputs": [],
      "stateMutability": "nonpayable",
      "type": "function"
    },
    {
      "inputs": [
        {
          "internalType": "bytes32",
          "name": "",
          "type": "bytes32"
        },
        {
          "internalType": "address",
          "name": "",
          "type": "address"
        }
      ],
      "name": "viewerAccess",
      "outputs": [
        {
          "internalType": "uint256",
          "name": "",
          "type": "uint256"
        }
      ],
      "stateMutability": "view",
      "type": "function"
    }
  ],
  "bytecode": "0x608060405234801561001057600080fd5b5061237a806100206000396000f3fe608060405234801561001057600080fd5b50600436106101215760003560e01c80638d53b208116100ad578063e1f653b111610071578063e1f653b1146102f9578063e46b47861461030c578063f3d4c0a81461031f578063f87cc49714610332578063ffa1ad741461034557600080fd5b80638d53b2081461024c578063be75b82f1461025f578063bfb4493f146102a7578063c5c400de146102c7578063dc61d161146102f157600080fd5b8063677371b7116100f4578063677371b7146101ac5780636a7f745e146101bf57806373acbe9c146101df57806383177db3146101f25780638759e6d11461021557600080fd5b80630fd3ccfd1461012657806314a22b121461014c57806325200f051461017757806337a459d31461018c575b600080fd5b610139610134366004611ad1565b610369565b6040519081526020015b60405180910390f35b61013961015a366004611c2d565b600360209081526000928352604080842090915290825290205481565b61018a610185366004611c59565b61067d565b005b61019f61019a366004611c8e565b6109fc565b6040516101439190611ca7565b6101396101ba366004611c2d565b610adf565b6101d26101cd366004611c8e565b610b09565b6040516101439190611d73565b61018a6101ed366004611c8e565b611087565b610205610200366004611c2d565b611163565b6040519015158152602001610143565b61023f6040518060400160405280600b81526020016a111251131858881450919560aa1b81525081565b6040516101439190611ea0565b61018a61025a366004611c2d565b6111f8565b61027261026d366004611eba565b6112cb565b604080516001600160a01b0396871681529590941660208601529284019190915260608301521515608082015260a001610143565b6102ba6102b5366004611edc565b611329565b6040516101439190611ef7565b6102da6102d5366004611c8e565b611395565b6040516101439b9a99989796959493929190611f3b565b600454610139565b610139610307366004611c8e565b611836565b61013961031a36600461201a565b6118a5565b61013961032d366004611c8e565b6118d6565b61018a610340366004612044565b6118f7565b61023f604051806040016040528060058152602001640312e302e360dc1b81525081565b6000808951116103b65760405162461bcd60e51b81526020600482015260136024820152724449442063616e6e6f7420626520656d70747960681b60448201526064015b60405180910390fd5b60008851116103fe5760405162461bcd60e51b81526020600482015260146024820152734e616d652063616e6e6f7420626520656d70747960601b60448201526064016103ad565b6000893342604051602001610415939291906120b1565b60408051601f1981840301815291815281516020928301206000818152928390529120600801549091506001600160a01b03161561048b5760405162461bcd60e51b81526020600482015260136024820152722232bb34b1b29024a21031b7b63634b9b4b7b760691b60448201526064016103ad565b60408051610160810182528b815260208082018c90528183018b9052606082018a90526080820189905260a0820188905260c0820187905260e082018690523361010083015242610120830152600161014083015260008481529081905291909120815181906104fb9082612173565b50602082015160018201906105109082612173565b50604082015160028201906105259082612173565b506060820151600382019061053a9082612173565b506080820151600482019061054f9082612173565b5060a082015160058201906105649082612173565b5060c082015160068201906105799082612173565b5060e0820151600782019061058e9082612173565b506101008201516008820180546001600160a01b0319166001600160a01b03909216919091179055610120820151600982015561014090910151600a909101805460ff1916911515919091179055336000818152600160208181526040808420805480850182559085529184209091018590556004805492830181559092527f8a35acfbc15ff81a39ae7d344fd709f28e8600b4aa8c65c6b64bfe7fe36bd19b018390555182907f067252743d52adac6f5004ab9bff2f3a91d1a1a04beddda70e221b5208c0888c90610668908e908e908e904290612233565b60405180910390a39998505050505050505050565b60008381526020819052604090206008015483906001600160a01b03166106b65760405162461bcd60e51b81526004016103ad9061227e565b60008481526020819052604090206008015484906001600160a01b031633146106f15760405162461bcd60e51b81526004016103ad906122ad565b6000858152602081905260409020600a0154859060ff1661074b5760405162461bcd60e51b8152602060048201526014602482015273446576696365206973206e6f742061637469766560601b60448201526064016103ad565b6001600160a01b03851661079a5760405162461bcd60e51b8152602060048201526016602482015275496e76616c696420766965776572206164647265737360501b60448201526064016103ad565b336001600160a01b038616036107f25760405162461bcd60e51b815260206004820152601b60248201527f43616e6e6f74206772616e742061636365737320746f2073656c66000000000060448201526064016103ad565b60008411801561080657506301e133808411155b6108455760405162461bcd60e51b815260206004820152601060248201526f24b73b30b634b210323ab930ba34b7b760811b60448201526064016103ad565b600061085185426122d7565b905060006040518060a00160405280336001600160a01b03168152602001886001600160a01b031681526020014281526020018381526020016001151581525090506002600089815260200190815260200160002081908060018154018082558091505060019003906000526020600020906005020160009091909190915060008201518160000160006101000a8154816001600160a01b0302191690836001600160a01b0316021790555060208201518160010160006101000a8154816001600160a01b0302191690836001600160a01b03160217905550604082015181600201556060820151816003015560808201518160040160006101000a81548160ff021916908315150217905550505081600360008a81526020019081526020016000206000896001600160a01b03166001600160a01b0316815260200190815260200160002081905550866001600160a01b0316336001600160a01b0316897f382f086014bd3452ecc73f4aa281bd63a4b22cf3dbb53a6feed31cf1ceb5ad3685426040516109ea929190918252602082015260400190565b60405180910390a45050505050505050565b60008181526020819052604090206008015460609082906001600160a01b0316610a385760405162461bcd60e51b81526004016103ad9061227e565b600083815260026020908152604080832080548251818502810185019093528083529193909284015b82821015610ad25760008481526020908190206040805160a0810182526005860290920180546001600160a01b03908116845260018083015490911684860152600282015492840192909252600381015460608401526004015460ff16151560808301529083529092019101610a61565b5050505091505b50919050565b60008281526003602090815260408083206001600160a01b03851684529091529020545b92915050565b610b71604051806101600160405280606081526020016060815260200160608152602001606081526020016060815260200160608152602001606081526020016060815260200160006001600160a01b03168152602001600081526020016000151581525090565b60008281526020819052604090206008015482906001600160a01b0316610baa5760405162461bcd60e51b81526004016103ad9061227e565b6000838152602081905260409081902081516101608101909252805482908290610bd3906120f0565b80601f0160208091040260200160405190810160405280929190818152602001828054610bff906120f0565b8015610c4c5780601f10610c2157610100808354040283529160200191610c4c565b820191906000526020600020905b815481529060010190602001808311610c2f57829003601f168201915b50505050508152602001600182018054610c65906120f0565b80601f0160208091040260200160405190810160405280929190818152602001828054610c91906120f0565b8015610cde5780601f10610cb357610100808354040283529160200191610cde565b820191906000526020600020905b815481529060010190602001808311610cc157829003601f168201915b50505050508152602001600282018054610cf7906120f0565b80601f0160208091040260200160405190810160405280929190818152602001828054610d23906120f0565b8015610d705780601f10610d4557610100808354040283529160200191610d70565b820191906000526020600020905b815481529060010190602001808311610d5357829003601f168201915b50505050508152602001600382018054610d89906120f0565b80601f0160208091040260200160405190810160405280929190818152602001828054610db5906120f0565b8015610e025780601f10610dd757610100808354040283529160200191610e02565b820191906000526020600020905b815481529060010190602001808311610de557829003601f168201915b50505050508152602001600482018054610e1b906120f0565b80601f0160208091040260200160405190810160405280929190818152602001828054610e47906120f0565b8015610e945780601f10610e6957610100808354040283529160200191610e94565b820191906000526020600020905b815481529060010190602001808311610e7757829003601f168201915b50505050508152602001600582018054610ead906120f0565b80601f0160208091040260200160405190810160405280929190818152602001828054610ed9906120f0565b8015610f265780601f10610efb57610100808354040283529160200191610f26565b820191906000526020600020905b815481529060010190602001808311610f0957829003601f168201915b50505050508152602001600682018054610f3f906120f0565b80601f0160208091040260200160405190810160405280929190818152602001828054610f6b906120f0565b8015610fb85780601f10610f8d57610100808354040283529160200191610fb8565b820191906000526020600020905b815481529060010190602001808311610f9b57829003601f168201915b50505050508152602001600782018054610fd1906120f0565b80601f0160208091040260200160405190810160405280929190818152602001828054610ffd906120f0565b801561104a5780601f1061101f5761010080835404028352916020019161104a565b820191906000526020600020905b81548152906001019060200180831161102d57829003601f168201915b505050918352505060088201546001600160a01b0316602082015260098201546040820152600a9091015460ff1615156060909101529392505050565b60008181526020819052604090206008015481906001600160a01b03166110c05760405162461bcd60e51b81526004016103ad9061227e565b60008281526020819052604090206008015482906001600160a01b031633146110fb5760405162461bcd60e51b81526004016103ad906122ad565b60008381526020818152604091829020600a01805460ff8082161560ff1990921682179092558351911615158152429181019190915284917fabde8f04ee88cbf4a32dd1bdcb32ca7bef59b81f6749ac69d2dce7911726deb1910160405180910390a2505050565b60008281526020819052604081206008015483906001600160a01b031661119c5760405162461bcd60e51b81526004016103ad9061227e565b6000848152602081905260409020600801546001600160a01b038085169116036111c957600191506111f1565b60008481526003602090815260408083206001600160a01b0387168452909152902054421091505b5092915050565b60008281526020819052604090206008015482906001600160a01b03166112315760405162461bcd60e51b81526004016103ad9061227e565b60008381526020819052604090206008015483906001600160a01b0316331461126c5760405162461bcd60e51b81526004016103ad906122ad565b60008481526003602090815260408083206001600160a01b038716808552908352818420939093555142815286917fa0e3f3c76d2b1cf89cf794141d07a6229a011f259128ef0195fa3a19002c2bc5910160405180910390a350505050565b600260205281600052604060002081815481106112e757600080fd5b6000918252602090912060059091020180546001820154600283015460038401546004909401546001600160a01b039384169650929091169350919060ff1685565b6001600160a01b03811660009081526001602090815260409182902080548351818402810184019094528084526060939283018282801561138957602002820191906000526020600020905b815481526020019060010190808311611375575b50505050509050919050565b6000602081905290815260409020805481906113b0906120f0565b80601f01602080910402602001604051908101604052809291908181526020018280546113dc906120f0565b80156114295780601f106113fe57610100808354040283529160200191611429565b820191906000526020600020905b81548152906001019060200180831161140c57829003601f168201915b50505050509080600101805461143e906120f0565b80601f016020809104026020016040519081016040528092919081815260200182805461146a906120f0565b80156114b75780601f1061148c576101008083540402835291602001916114b7565b820191906000526020600020905b81548152906001019060200180831161149a57829003601f168201915b5050505050908060020180546114cc906120f0565b80601f01602080910402602001604051908101604052809291908181526020018280546114f8906120f0565b80156115455780601f1061151a57610100808354040283529160200191611545565b820191906000526020600020905b81548152906001019060200180831161152857829003601f168201915b50505050509080600301805461155a906120f0565b80601f0160208091040260200160405190810160405280929190818152602001828054611586906120f0565b80156115d35780601f106115a8576101008083540402835291602001916115d3565b820191906000526020600020905b8154815290600101906020018083116115b657829003601f168201915b5050505050908060040180546115e8906120f0565b80601f0160208091040260200160405190810160405280929190818152602001828054611614906120f0565b80156116615780601f1061163657610100808354040283529160200191611661565b820191906000526020600020905b81548152906001019060200180831161164457829003601f168201915b505050505090806005018054611676906120f0565b80601f01602080910402602001604051908101604052809291908181526020018280546116a2906120f0565b80156116ef5780601f106116c4576101008083540402835291602001916116ef565b820191906000526020600020905b8154815290600101906020018083116116d257829003601f168201915b505050505090806006018054611704906120f0565b80601f0160208091040260200160405190810160405280929190818152602001828054611730906120f0565b801561177d5780601f106117525761010080835404028352916020019161177d565b820191906000526020600020905b81548152906001019060200180831161176057829003601f168201915b505050505090806007018054611792906120f0565b80601f01602080910402602001604051908101604052809291908181526020018280546117be906120f0565b801561180b5780601f106117e05761010080835404028352916020019161180b565b820191906000526020600020905b8154815290600101906020018083116117ee57829003601f168201915b5050505060088301546009840154600a9094015492936001600160a01b039091169290915060ff168b565b60045460009082106118805760405162461bcd60e51b8152602060048201526013602482015272496e646578206f7574206f6620626f756e647360681b60448201526064016103ad565b60048281548110611893576118936122f8565b90600052602060002001549050919050565b600160205281600052604060002081815481106118c157600080fd5b90600052602060002001600091509150505481565b600481815481106118e657600080fd5b600091825260209091200154905081565b60008381526020819052604090206008015483906001600160a01b03166119305760405162461bcd60e51b81526004016103ad9061227e565b60008481526020819052604090206008015484906001600160a01b0316331461196b5760405162461bcd60e51b81526004016103ad906122ad565b60008451116119b35760405162461bcd60e51b81526020600482015260146024820152734e616d652063616e6e6f7420626520656d70747960601b60448201526064016103ad565b60008581526020819052604090206001016119ce8582612173565b5060008581526020819052604090206006016119ea8482612173565b50847fa3567e05d36c2462ea35790c1c975ddd77a1f7cf8718bd3a86ae58688e0d8184858542604051611a1f9392919061230e565b60405180910390a25050505050565b634e487b7160e01b600052604160045260246000fd5b600082601f830112611a5557600080fd5b813567ffffffffffffffff80821115611a7057611a70611a2e565b604051601f8301601f19908116603f01168101908282118183101715611a9857611a98611a2e565b81604052838152866020858801011115611ab157600080fd5b836020870160208301376000602085830101528094505050505092915050565b600080600080600080600080610100898b031215611aee57600080fd5b883567ffffffffffffffff80821115611b0657600080fd5b611b128c838d01611a44565b995060208b0135915080821115611b2857600080fd5b611b348c838d01611a44565b985060408b0135915080821115611b4a57600080fd5b611b568c838d01611a44565b975060608b0135915080821115611b6c57600080fd5b611b788c838d01611a44565b965060808b0135915080821115611b8e57600080fd5b611b9a8c838d01611a44565b955060a08b0135915080821115611bb057600080fd5b611bbc8c838d01611a44565b945060c08b0135915080821115611bd257600080fd5b611bde8c838d01611a44565b935060e08b0135915080821115611bf457600080fd5b50611c018b828c01611a44565b9150509295985092959890939650565b80356001600160a01b0381168114611c2857600080fd5b919050565b60008060408385031215611c4057600080fd5b82359150611c5060208401611c11565b90509250929050565b600080600060608486031215611c6e57600080fd5b83359250611c7e60208501611c11565b9150604084013590509250925092565b600060208284031215611ca057600080fd5b5035919050565b602080825282518282018190526000919060409081850190868401855b82811015611d1657815180516001600160a01b03908116865287820151168786015285810151868601526060808201519086015260809081015115159085015260a09093019290850190600101611cc4565b5091979650505050505050565b60005b83811015611d3e578181015183820152602001611d26565b50506000910152565b60008151808452611d5f816020860160208601611d23565b601f01601f19169290920160200192915050565b6020815260008251610160806020850152611d92610180850183611d47565b91506020850151601f1980868503016040870152611db08483611d47565b93506040870151915080868503016060870152611dcd8483611d47565b93506060870151915080868503016080870152611dea8483611d47565b935060808701519150808685030160a0870152611e078483611d47565b935060a08701519150808685030160c0870152611e248483611d47565b935060c08701519150808685030160e0870152611e418483611d47565b935060e08701519150610100818786030181880152611e608584611d47565b94508088015192505050610120611e81818701836001600160a01b03169052565b8601516101408681019190915290950151151593019290925250919050565b602081526000611eb36020830184611d47565b9392505050565b60008060408385031215611ecd57600080fd5b50508035926020909101359150565b600060208284031215611eee57600080fd5b611eb382611c11565b6020808252825182820181905260009190848201906040850190845b81811015611f2f57835183529284019291840191600101611f13565b50909695505050505050565b6000610160808352611f4f8184018f611d47565b90508281036020840152611f63818e611d47565b90508281036040840152611f77818d611d47565b90508281036060840152611f8b818c611d47565b90508281036080840152611f9f818b611d47565b905082810360a0840152611fb3818a611d47565b905082810360c0840152611fc78189611d47565b905082810360e0840152611fdb8188611d47565b915050611ff46101008301866001600160a01b03169052565b8361012083015261200a61014083018415159052565b9c9b505050505050505050505050565b6000806040838503121561202d57600080fd5b61203683611c11565b946020939093013593505050565b60008060006060848603121561205957600080fd5b83359250602084013567ffffffffffffffff8082111561207857600080fd5b61208487838801611a44565b9350604086013591508082111561209a57600080fd5b506120a786828701611a44565b9150509250925092565b600084516120c3818460208901611d23565b60609490941b6bffffffffffffffffffffffff191691909301908152601481019190915260340192915050565b600181811c9082168061210457607f821691505b602082108103610ad957634e487b7160e01b600052602260045260246000fd5b601f82111561216e57600081815260208120601f850160051c8101602086101561214b5750805b601f850160051c820191505b8181101561216a57828155600101612157565b5050505b505050565b815167ffffffffffffffff81111561218d5761218d611a2e565b6121a18161219b84546120f0565b84612124565b602080601f8311600181146121d657600084156121be5750858301515b600019600386901b1c1916600185901b17855561216a565b600085815260208120601f198616915b82811015612205578886015182559484019460019091019084016121e6565b50858210156122235787850151600019600388901b60f8161c191681555b5050505050600190811b01905550565b6080815260006122466080830187611d47565b82810360208401526122588187611d47565b9050828103604084015261226c8186611d47565b91505082606083015295945050505050565b60208082526015908201527411195d9a58d948191bd95cc81b9bdd08195e1a5cdd605a1b604082015260600190565b60208082526010908201526f2737ba103232bb34b1b29037bbb732b960811b604082015260600190565b80820180821115610b0357634e487b7160e01b600052601160045260246000fd5b634e487b7160e01b600052603260045260246000fd5b6060815260006123216060830186611d47565b82810360208401526123338186611d47565b91505082604083015294935050505056fea26469706673582212201b2b4c55cf037861ada57782dba380fd8d7f74ad35ade8b95ab806a6da52f40064736f6c63430008130033",
  "linkReferences": {},
  "deployedLinkReferences": {}
}